{
  "contractName": "CryptoFreaks",
  "abi": [
    {
      "constant": true,
      "inputs": [
        {
          "name": "",
          "type": "uint256"
        }
      ],
      "name": "monsterToOwnerIndex",
      "outputs": [
        {
          "name": "",
          "type": "address"
        }
      ],
      "payable": false,
      "stateMutability": "view",
      "type": "function"
    },
    {
      "constant": true,
      "inputs": [
        {
          "name": "",
          "type": "address"
        }
      ],
      "name": "monsterOwnershipCount",
      "outputs": [
        {
          "name": "",
          "type": "uint256"
        }
      ],
      "payable": false,
      "stateMutability": "view",
      "type": "function"
    },
    {
      "constant": false,
      "inputs": [],
      "name": "unpause",
      "outputs": [],
      "payable": false,
      "stateMutability": "nonpayable",
      "type": "function"
    },
    {
      "constant": true,
      "inputs": [],
      "name": "paused",
      "outputs": [
        {
          "name": "",
          "type": "bool"
        }
      ],
      "payable": false,
      "stateMutability": "view",
      "type": "function"
    },
    {
      "constant": false,
      "inputs": [],
      "name": "renounceOwnership",
      "outputs": [],
      "payable": false,
      "stateMutability": "nonpayable",
      "type": "function"
    },
    {
      "constant": false,
      "inputs": [],
      "name": "pause",
      "outputs": [],
      "payable": false,
      "stateMutability": "nonpayable",
      "type": "function"
    },
    {
      "constant": true,
      "inputs": [],
      "name": "owner",
      "outputs": [
        {
          "name": "",
          "type": "address"
        }
      ],
      "payable": false,
      "stateMutability": "view",
      "type": "function"
    },
    {
      "constant": true,
      "inputs": [
        {
          "name": "",
          "type": "uint256"
        }
      ],
      "name": "monsters",
      "outputs": [
        {
          "name": "id",
          "type": "uint256"
        },
        {
          "name": "genes",
          "type": "uint256"
        },
        {
          "name": "generation",
          "type": "uint256"
        },
        {
          "name": "owner",
          "type": "address"
        },
        {
          "name": "forSale",
          "type": "bool"
        },
        {
          "name": "price",
          "type": "uint256"
        }
      ],
      "payable": false,
      "stateMutability": "view",
      "type": "function"
    },
    {
      "constant": false,
      "inputs": [
        {
          "name": "_newOwner",
          "type": "address"
        }
      ],
      "name": "transferOwnership",
      "outputs": [],
      "payable": false,
      "stateMutability": "nonpayable",
      "type": "function"
    },
    {
      "inputs": [],
      "payable": false,
      "stateMutability": "nonpayable",
      "type": "constructor"
    },
    {
      "anonymous": false,
      "inputs": [
        {
          "indexed": false,
          "name": "id",
          "type": "uint256"
        }
      ],
      "name": "MonsterGenerated",
      "type": "event"
    },
    {
      "anonymous": false,
      "inputs": [
        {
          "indexed": false,
          "name": "id",
          "type": "uint256"
        }
      ],
      "name": "MonsterSold",
      "type": "event"
    },
    {
      "anonymous": false,
      "inputs": [
        {
          "indexed": false,
          "name": "id",
          "type": "uint256"
        }
      ],
      "name": "MonsterGifted",
      "type": "event"
    },
    {
      "anonymous": false,
      "inputs": [
        {
          "indexed": false,
          "name": "mom",
          "type": "uint256"
        },
        {
          "indexed": false,
          "name": "dad",
          "type": "uint256"
        },
        {
          "indexed": false,
          "name": "baby",
          "type": "uint256"
        }
      ],
      "name": "MonsterBred",
      "type": "event"
    },
    {
      "anonymous": false,
      "inputs": [],
      "name": "Pause",
      "type": "event"
    },
    {
      "anonymous": false,
      "inputs": [],
      "name": "Unpause",
      "type": "event"
    },
    {
      "anonymous": false,
      "inputs": [
        {
          "indexed": true,
          "name": "previousOwner",
          "type": "address"
        }
      ],
      "name": "OwnershipRenounced",
      "type": "event"
    },
    {
      "anonymous": false,
      "inputs": [
        {
          "indexed": true,
          "name": "previousOwner",
          "type": "address"
        },
        {
          "indexed": true,
          "name": "newOwner",
          "type": "address"
        }
      ],
      "name": "OwnershipTransferred",
      "type": "event"
    },
    {
      "constant": true,
      "inputs": [],
      "name": "totalSupply",
      "outputs": [
        {
          "name": "",
          "type": "uint256"
        }
      ],
      "payable": false,
      "stateMutability": "view",
      "type": "function"
    },
    {
      "constant": false,
      "inputs": [],
      "name": "generateMonster",
      "outputs": [],
      "payable": false,
      "stateMutability": "nonpayable",
      "type": "function"
    },
    {
      "constant": true,
      "inputs": [
        {
          "name": "_monsterID",
          "type": "uint256"
        }
      ],
      "name": "getMonster",
      "outputs": [
        {
          "name": "id",
          "type": "uint256"
        },
        {
          "name": "generation",
          "type": "uint256"
        },
        {
          "name": "genes",
          "type": "uint256"
        },
        {
          "name": "owner",
          "type": "address"
        },
        {
          "name": "forSale",
          "type": "bool"
        },
        {
          "name": "price",
          "type": "uint256"
        }
      ],
      "payable": false,
      "stateMutability": "view",
      "type": "function"
    },
    {
      "constant": true,
      "inputs": [],
      "name": "getAllMonsters",
      "outputs": [
        {
          "name": "",
          "type": "uint256[]"
        }
      ],
      "payable": false,
      "stateMutability": "view",
      "type": "function"
    },
    {
      "constant": true,
      "inputs": [
        {
          "name": "_owner",
          "type": "address"
        }
      ],
      "name": "getMonstersOfOwner",
      "outputs": [
        {
          "name": "",
          "type": "uint256[]"
        }
      ],
      "payable": false,
      "stateMutability": "view",
      "type": "function"
    },
    {
      "constant": false,
      "inputs": [
        {
          "name": "_monsterID",
          "type": "uint256"
        },
        {
          "name": "_price",
          "type": "uint256"
        }
      ],
      "name": "putOnSale",
      "outputs": [],
      "payable": false,
      "stateMutability": "nonpayable",
      "type": "function"
    },
    {
      "constant": false,
      "inputs": [
        {
          "name": "_monsterID",
          "type": "uint256"
        }
      ],
      "name": "removeFromSale",
      "outputs": [],
      "payable": false,
      "stateMutability": "nonpayable",
      "type": "function"
    },
    {
      "constant": false,
      "inputs": [
        {
          "name": "_monsterID",
          "type": "uint256"
        }
      ],
      "name": "buyMonster",
      "outputs": [],
      "payable": true,
      "stateMutability": "payable",
      "type": "function"
    },
    {
      "constant": false,
      "inputs": [
        {
          "name": "_monsterID",
          "type": "uint256"
        },
        {
          "name": "_user",
          "type": "address"
        }
      ],
      "name": "giftMonster",
      "outputs": [],
      "payable": true,
      "stateMutability": "payable",
      "type": "function"
    }
  ],
  "bytecode": "0x608060405260008060146101000a81548160ff02191690831515021790555034801561002a57600080fd5b50336000806101000a81548173ffffffffffffffffffffffffffffffffffffffff021916908373ffffffffffffffffffffffffffffffffffffffff1602179055506000600281905550611b0a806100826000396000f3006080604052600436106100fc576000357c0100000000000000000000000000000000000000000000000000000000900463ffffffff16806308e29f56146101015780631361a3b61461016e578063154bd5521461019b57806318160ddd146101bb5780632065f7ef146101e65780632d9814521461023d57806336f7992b146102545780633f4ba83a1461028b5780635c975abb146102a2578063611f9a1f146102d157806362fb6fe11461033d578063715018a6146103d15780638456cb59146103e85780638da5cb5b146103ff578063c0576b7314610456578063eb1f8659146104ea578063f2fde38b14610582578063fca9578a146105c5575b600080fd5b34801561010d57600080fd5b5061012c60048036038101908080359060200190929190505050610605565b604051808273ffffffffffffffffffffffffffffffffffffffff1673ffffffffffffffffffffffffffffffffffffffff16815260200191505060405180910390f35b34801561017a57600080fd5b5061019960048036038101908080359060200190929190505050610638565b005b6101b96004803603810190808035906020019092919050505061075e565b005b3480156101c757600080fd5b506101d0610b7f565b6040518082815260200191505060405180910390f35b3480156101f257600080fd5b50610227600480360381019080803573ffffffffffffffffffffffffffffffffffffffff169060200190929190505050610b89565b6040518082815260200191505060405180910390f35b34801561024957600080fd5b50610252610ba1565b005b34801561026057600080fd5b506102896004803603810190808035906020019092919080359060200190929190505050610eca565b005b34801561029757600080fd5b506102a061100c565b005b3480156102ae57600080fd5b506102b76110ca565b604051808215151515815260200191505060405180910390f35b3480156102dd57600080fd5b506102e66110dd565b6040518080602001828103825283818151815260200191508051906020019060200280838360005b8381101561032957808201518184015260208101905061030e565b505050509050019250505060405180910390f35b34801561034957600080fd5b50610368600480360381019080803590602001909291905050506111a9565b604051808781526020018681526020018581526020018473ffffffffffffffffffffffffffffffffffffffff1673ffffffffffffffffffffffffffffffffffffffff16815260200183151515158152602001828152602001965050505050505060405180910390f35b3480156103dd57600080fd5b506103e66112a1565b005b3480156103f457600080fd5b506103fd6113a3565b005b34801561040b57600080fd5b50610414611463565b604051808273ffffffffffffffffffffffffffffffffffffffff1673ffffffffffffffffffffffffffffffffffffffff16815260200191505060405180910390f35b34801561046257600080fd5b5061048160048036038101908080359060200190929190505050611488565b604051808781526020018681526020018581526020018473ffffffffffffffffffffffffffffffffffffffff1673ffffffffffffffffffffffffffffffffffffffff16815260200183151515158152602001828152602001965050505050505060405180910390f35b3480156104f657600080fd5b5061052b600480360381019080803573ffffffffffffffffffffffffffffffffffffffff1690602001909291905050506114f1565b6040518080602001828103825283818151815260200191508051906020019060200280838360005b8381101561056e578082015181840152602081019050610553565b505050509050019250505060405180910390f35b34801561058e57600080fd5b506105c3600480360381019080803573ffffffffffffffffffffffffffffffffffffffff16906020019092919050505061166c565b005b61060360048036038101908080359060200190929190803573ffffffffffffffffffffffffffffffffffffffff1690602001909291905050506116d3565b005b60056020528060005260406000206000915054906101000a900473ffffffffffffffffffffffffffffffffffffffff1681565b803373ffffffffffffffffffffffffffffffffffffffff166005600083815260200190815260200160002060009054906101000a900473ffffffffffffffffffffffffffffffffffffffff1673ffffffffffffffffffffffffffffffffffffffff1614151561070f576040517f08c379a000000000000000000000000000000000000000000000000000000000815260040180806020018281038252601c8152602001807f4d6f6e73746572206973206e6f74206f776e656420627920757365720000000081525060200191505060405180910390fd5b600060149054906101000a900460ff1615151561072b57600080fd5b60006003600084815260200190815260200160002060030160146101000a81548160ff0219169083151502179055505050565b6000816003600082815260200190815260200160002060030160149054906101000a900460ff1615156107f9576040517f08c379a000000000000000000000000000000000000000000000000000000000815260040180806020018281038252601a8152602001807f4d6f6e737465722068617320746f20626520666f722073616c6500000000000081525060200191505060405180910390fd5b82600360008281526020019081526020016000206004015434101515156108ae576040517f08c379a00000000000000000000000000000000000000000000000000000000081526004018080602001828103825260258152602001807f4e6f7420656e6f756768206d6f6d6e657920746f206275792074686973206d6f81526020017f6e7374657200000000000000000000000000000000000000000000000000000081525060400191505060405180910390fd5b600060149054906101000a900460ff161515156108ca57600080fd5b6003600085815260200190815260200160002060030160009054906101000a900473ffffffffffffffffffffffffffffffffffffffff1692507fb2d95bd110c6c7467ad82b48a3f027e905fce348a0f2203141c892f8776e2aa7846040518082815260200191505060405180910390a160006003600086815260200190815260200160002060030160146101000a81548160ff0219169083151502179055508273ffffffffffffffffffffffffffffffffffffffff166108fc60036000878152602001908152602001600020600401549081150290604051600060405180830381858888f193505050501580156109c5573d6000803e3d6000fd5b506001600460008573ffffffffffffffffffffffffffffffffffffffff1673ffffffffffffffffffffffffffffffffffffffff1681526020019081526020016000205403600460008573ffffffffffffffffffffffffffffffffffffffff1673ffffffffffffffffffffffffffffffffffffffff16815260200190815260200160002081905550336003600086815260200190815260200160002060030160006101000a81548173ffffffffffffffffffffffffffffffffffffffff021916908373ffffffffffffffffffffffffffffffffffffffff160217905550336005600086815260200190815260200160002060006101000a81548173ffffffffffffffffffffffffffffffffffffffff021916908373ffffffffffffffffffffffffffffffffffffffff1602179055506001600460003373ffffffffffffffffffffffffffffffffffffffff1673ffffffffffffffffffffffffffffffffffffffff1681526020019081526020016000205401600460003373ffffffffffffffffffffffffffffffffffffffff1673ffffffffffffffffffffffffffffffffffffffff1681526020019081526020016000208190555050505050565b6000600254905090565b60046020528060005260406000206000915090505481565b6000809054906101000a900473ffffffffffffffffffffffffffffffffffffffff1673ffffffffffffffffffffffffffffffffffffffff163373ffffffffffffffffffffffffffffffffffffffff16141515610bfc57600080fd5b7f653fcaa16bbb8930df31da4130be138e73b9fb82eb11a3f7ccf80d00836a7aad6002546040518082815260200191505060405180910390a160c06040519081016040528060016002540181526020014260015460405180838152602001828152602001925050506040518091039020600190048152602001600081526020016000809054906101000a900473ffffffffffffffffffffffffffffffffffffffff1673ffffffffffffffffffffffffffffffffffffffff1681526020016001151581526020016611c37937e0800081525060036000600254815260200190815260200160002060008201518160000155602082015181600101556040820151816002015560608201518160030160006101000a81548173ffffffffffffffffffffffffffffffffffffffff021916908373ffffffffffffffffffffffffffffffffffffffff16021790555060808201518160030160146101000a81548160ff02191690831515021790555060a082015181600401559050506001600460008060009054906101000a900473ffffffffffffffffffffffffffffffffffffffff1673ffffffffffffffffffffffffffffffffffffffff1673ffffffffffffffffffffffffffffffffffffffff1681526020019081526020016000205401600460008060009054906101000a900473ffffffffffffffffffffffffffffffffffffffff1673ffffffffffffffffffffffffffffffffffffffff1673ffffffffffffffffffffffffffffffffffffffff168152602001908152602001600020819055506000809054906101000a900473ffffffffffffffffffffffffffffffffffffffff1660056000600254815260200190815260200160002060006101000a81548173ffffffffffffffffffffffffffffffffffffffff021916908373ffffffffffffffffffffffffffffffffffffffff1602179055506001600254016002819055504360015401600181905550565b813373ffffffffffffffffffffffffffffffffffffffff166005600083815260200190815260200160002060009054906101000a900473ffffffffffffffffffffffffffffffffffffffff1673ffffffffffffffffffffffffffffffffffffffff16141515610fa1576040517f08c379a000000000000000000000000000000000000000000000000000000000815260040180806020018281038252601c8152602001807f4d6f6e73746572206973206e6f74206f776e656420627920757365720000000081525060200191505060405180910390fd5b600060149054906101000a900460ff16151515610fbd57600080fd5b60016003600085815260200190815260200160002060030160146101000a81548160ff021916908315150217905550816003600085815260200190815260200160002060040181905550505050565b6000809054906101000a900473ffffffffffffffffffffffffffffffffffffffff1673ffffffffffffffffffffffffffffffffffffffff163373ffffffffffffffffffffffffffffffffffffffff1614151561106757600080fd5b600060149054906101000a900460ff16151561108257600080fd5b60008060146101000a81548160ff0219169083151502179055507f7805862f689e2f13df9f062ff482ad3ad112aca9e0847911ed832e158c525b3360405160405180910390a1565b600060149054906101000a900460ff1681565b6060806000806000600254141561112657600060405190808252806020026020018201604052801561111e5781602001602082028038833980820191505090505b5093506111a3565b6002546040519080825280602002602001820160405280156111575781602001602082028038833980820191505090505b50925060009150600090505b60025481101561119f5780838381518110151561117c57fe5b906020019060200201818152505081806001019250508080600101915050611163565b8293505b50505090565b6000806000806000806000876002548110151561122e576040517f08c379a00000000000000000000000000000000000000000000000000000000081526004018080602001828103825260188152602001807f4d6f6e73746572206964206f7574206f6620626f756e6473000000000000000081525060200191505060405180910390fd5b600360008a8152602001908152602001600020915088975081600201549650816001015495508160030160009054906101000a900473ffffffffffffffffffffffffffffffffffffffff1694508160030160149054906101000a900460ff16935081600401549250505091939550919395565b6000809054906101000a900473ffffffffffffffffffffffffffffffffffffffff1673ffffffffffffffffffffffffffffffffffffffff163373ffffffffffffffffffffffffffffffffffffffff161415156112fc57600080fd5b6000809054906101000a900473ffffffffffffffffffffffffffffffffffffffff1673ffffffffffffffffffffffffffffffffffffffff167ff8df31144d9c2f0f6b59d69b8b98abd5459d07f2742c4df920b25aae33c6482060405160405180910390a260008060006101000a81548173ffffffffffffffffffffffffffffffffffffffff021916908373ffffffffffffffffffffffffffffffffffffffff160217905550565b6000809054906101000a900473ffffffffffffffffffffffffffffffffffffffff1673ffffffffffffffffffffffffffffffffffffffff163373ffffffffffffffffffffffffffffffffffffffff161415156113fe57600080fd5b600060149054906101000a900460ff1615151561141a57600080fd5b6001600060146101000a81548160ff0219169083151502179055507f6985a02210a168e66602d3235cb6db0e70f92b3ba4d376a33c0f3d9434bff62560405160405180910390a1565b6000809054906101000a900473ffffffffffffffffffffffffffffffffffffffff1681565b60036020528060005260406000206000915090508060000154908060010154908060020154908060030160009054906101000a900473ffffffffffffffffffffffffffffffffffffffff16908060030160149054906101000a900460ff16908060040154905086565b606060006060600080600460008773ffffffffffffffffffffffffffffffffffffffff1673ffffffffffffffffffffffffffffffffffffffff1681526020019081526020016000205493506000600254141561157f5760006040519080825280602002602001820160405280156115775781602001602082028038833980820191505090505b509450611663565b836040519080825280602002602001820160405280156115ae5781602001602082028038833980820191505090505b50925060009150600190505b6002548111151561165f578573ffffffffffffffffffffffffffffffffffffffff166005600083815260200190815260200160002060009054906101000a900473ffffffffffffffffffffffffffffffffffffffff1673ffffffffffffffffffffffffffffffffffffffff1614156116525780838381518110151561163b57fe5b906020019060200201818152505081806001019250505b80806001019150506115ba565b8294505b50505050919050565b6000809054906101000a900473ffffffffffffffffffffffffffffffffffffffff1673ffffffffffffffffffffffffffffffffffffffff163373ffffffffffffffffffffffffffffffffffffffff161415156116c757600080fd5b6116d0816119e4565b50565b813373ffffffffffffffffffffffffffffffffffffffff166005600083815260200190815260200160002060009054906101000a900473ffffffffffffffffffffffffffffffffffffffff1673ffffffffffffffffffffffffffffffffffffffff161415156117aa576040517f08c379a000000000000000000000000000000000000000000000000000000000815260040180806020018281038252601c8152602001807f4d6f6e73746572206973206e6f74206f776e656420627920757365720000000081525060200191505060405180910390fd5b600060149054906101000a900460ff161515156117c657600080fd5b7fffc78eea31e0a239df808b7e0baa1b1587d61dd5d9643e87453adcb656f6e767836040518082815260200191505060405180910390a160006003600085815260200190815260200160002060030160146101000a81548160ff021916908315150217905550816003600085815260200190815260200160002060030160006101000a81548173ffffffffffffffffffffffffffffffffffffffff021916908373ffffffffffffffffffffffffffffffffffffffff160217905550816005600085815260200190815260200160002060006101000a81548173ffffffffffffffffffffffffffffffffffffffff021916908373ffffffffffffffffffffffffffffffffffffffff1602179055506001600460008473ffffffffffffffffffffffffffffffffffffffff1673ffffffffffffffffffffffffffffffffffffffff1681526020019081526020016000205401600460008473ffffffffffffffffffffffffffffffffffffffff1673ffffffffffffffffffffffffffffffffffffffff168152602001908152602001600020819055506001600460003373ffffffffffffffffffffffffffffffffffffffff1673ffffffffffffffffffffffffffffffffffffffff1681526020019081526020016000205403600460003373ffffffffffffffffffffffffffffffffffffffff1673ffffffffffffffffffffffffffffffffffffffff16815260200190815260200160002081905550505050565b600073ffffffffffffffffffffffffffffffffffffffff168173ffffffffffffffffffffffffffffffffffffffff1614151515611a2057600080fd5b8073ffffffffffffffffffffffffffffffffffffffff166000809054906101000a900473ffffffffffffffffffffffffffffffffffffffff1673ffffffffffffffffffffffffffffffffffffffff167f8be0079c531659141344cd1fd0a4f28419497f9722a3daafe3b4186f6b6457e060405160405180910390a3806000806101000a81548173ffffffffffffffffffffffffffffffffffffffff021916908373ffffffffffffffffffffffffffffffffffffffff160217905550505600a165627a7a723058202f58d65646a8082d25e01e6096c2446bbc838c55ffce68ecab0891e9cfc0b55b0029",
  "source": "pragma solidity ^0.4.21;\n\nimport \"./Pausable.sol\";\n\ncontract CryptoFreaks is Pausable {\n    // to be used for \"random\" gene generation\n    uint rIndex;\n    // Number of total generated monsters\n    uint numMonsters;\n    // list of monsters by id\n    mapping (uint256 => Monster) public monsters;\n    // number of monsters by owner\n    mapping (address => uint) public monsterOwnershipCount;\n    // given a monster id return owner\n    mapping (uint => address) public monsterToOwnerIndex;\n\n    event MonsterGenerated(uint id);\n    event MonsterSold(uint id);\n    event MonsterGifted(uint id);\n    event MonsterBred(uint mom, uint dad, uint baby);\n\n    constructor() public {\n        numMonsters = 0;\n    }\n\n    struct Monster {\n        uint id;\n        uint genes;\n        uint generation;\n        address owner;\n        bool forSale;\n        uint price;\n    }\n\n    /**\n     * The monster id must be lower than number of generated monsters\n     * @param _monsterID id of the monster we want to check if exists\n     */\n    modifier exists(uint _monsterID) {\n        require(_monsterID < numMonsters, \"Monster id out of bounds\");\n        _;\n    }\n\n    /**\n     * This method must be called by the monster owner only\n     * @param _monsterID id of the monster that should be owned by msg.sender\n     */\n    modifier onlyMonsterOwner(uint _monsterID) {\n        require(monsterToOwnerIndex[_monsterID] == msg.sender, \"Monster is not owned by user\");\n        _;\n    }\n\n    /**\n     * Monster must be for sale\n     * @param _monsterID id of the monster that needs to be for sale\n     */\n    modifier isForSale(uint _monsterID) {\n        require(monsters[_monsterID].forSale, \"Monster has to be for sale\");\n        _;\n    }\n\n    modifier paidEnough(uint _monsterID) { \n        require(msg.value >= monsters[_monsterID].price, \"Not enough momney to buy this monster\");\n        _;\n    }\n\n    /**\n     * Return total amount of generated monsters\n     */\n    function totalSupply() public view returns(uint) {\n        return numMonsters;\n    }\n\n    /**\n     * Generates a \"random\" (not really) new monster\n     */\n    function generateMonster() public onlyOwner {\n        emit MonsterGenerated(numMonsters);\n        monsters[numMonsters] = Monster({\n            id: numMonsters + 1,\n            genes: uint(keccak256(block.timestamp, rIndex)),\n            generation: 0,\n            owner: owner,\n            forSale: true,\n            price: 5 finney\n        });\n        monsterOwnershipCount[owner] = monsterOwnershipCount[owner] + 1;\n        monsterToOwnerIndex[numMonsters] = owner;\n        numMonsters = numMonsters + 1;\n        rIndex = rIndex + block.number;\n    }\n\n    /**\n     * Get a monster by id\n     * @param _monsterID if of the monster we want to get\n     */\n    function getMonster(uint _monsterID) public view exists(_monsterID) returns(\n        uint id,\n        uint generation,\n        uint genes,\n        address owner,\n        bool forSale,\n        uint price\n    ) {\n        Monster storage m = monsters[_monsterID];\n        id = _monsterID;\n        generation = m.generation;\n        genes = m.genes;\n        owner = m.owner;\n        forSale = m.forSale;\n        price = m.price;\n    }\n\n    /*\n     * Return a list of all the available monsters\n     */\n    function getAllMonsters() public view returns(uint256[]) {\n        if (numMonsters == 0) {\n            // Return an empty array\n            return new uint256[](0);\n        } else {\n            uint256[] memory result = new uint256[](numMonsters);\n            uint256 resultIndex = 0;\n\n            // We count on the fact that all cats have IDs starting at 1 and increasing\n            // sequentially up to the totalCat count.\n            uint256 monsterID;\n\n            for (monsterID = 0; monsterID < numMonsters; monsterID++) {\n                result[resultIndex] = monsterID;\n                resultIndex++;\n            }\n\n            return result;\n        }\n    }\n\n    /**\n     * Return a list of the monsters owned by an address\n     * @param _owner address of the owner for the monsters we want to fetch\n     */\n    function getMonstersOfOwner(address _owner) public view returns(uint[]) {\n        uint numMonstersOwner = monsterOwnershipCount[_owner];\n\n        if (numMonsters == 0) {\n            // Return an empty array\n            return new uint[](0);\n        } else {\n            uint[] memory result = new uint[](numMonstersOwner);\n            uint resultIndex = 0;\n\n            // We count on the fact that all cats have IDs starting at 1 and increasing\n            // sequentially up to the totalCat count.\n            uint catId;\n\n            for (catId = 1; catId <= numMonsters; catId++) {\n                if (monsterToOwnerIndex[catId] == _owner) {\n                    result[resultIndex] = catId;\n                    resultIndex++;\n                }\n            }\n\n            return result;\n        }\n    }\n\n    /*\n     * Put a monster in the market\n     * @param _monsterID id of the monster to put on sale\n     */\n    function putOnSale(uint _monsterID, uint _price) public onlyMonsterOwner(_monsterID) whenNotPaused() {\n        monsters[_monsterID].forSale = true;\n        monsters[_monsterID].price = _price;\n    }\n\n    /*\n     * Monster is no longer for sale\n     * @param _monsterID id of the monster to remove from sale\n     */\n    function removeFromSale(uint _monsterID) public onlyMonsterOwner(_monsterID) whenNotPaused(){\n        monsters[_monsterID].forSale = false;\n    }\n\n    /*\n     * Buy monster\n     */\n    function buyMonster(uint _monsterID) public payable isForSale(_monsterID) paidEnough(_monsterID) whenNotPaused(){\n        address owner = monsters[_monsterID].owner;\n        emit MonsterSold(_monsterID);\n        monsters[_monsterID].forSale = false;\n        owner.transfer(monsters[_monsterID].price);\n        monsterOwnershipCount[owner] = monsterOwnershipCount[owner] - 1;\n        monsters[_monsterID].owner = msg.sender;\n        monsterToOwnerIndex[_monsterID] = msg.sender;\n        monsterOwnershipCount[msg.sender] = monsterOwnershipCount[msg.sender] + 1;\n    }\n\n    /*\n     * Gift monster to another user\n     * @param _monsterID id of monster I'm giving away\n     * @param _user address of user to receive monster\n     */\n    function giftMonster(uint _monsterID, address _user) public payable onlyMonsterOwner(_monsterID) whenNotPaused(){\n        emit MonsterGifted(_monsterID);\n        monsters[_monsterID].forSale = false;\n        monsters[_monsterID].owner = _user;\n        monsterToOwnerIndex[_monsterID] = _user;\n        monsterOwnershipCount[_user] = monsterOwnershipCount[_user] + 1;\n        monsterOwnershipCount[msg.sender] = monsterOwnershipCount[msg.sender] - 1;\n    }\n\n}",
  "sourcePath": "/Users/ruben/proj/cryptofreaks/contracts/CryptoFreaks.sol",
  "compiler": {
    "name": "solc",
    "version": "0.4.24+commit.e67f0147.Emscripten.clang"
  },
  "schemaVersion": "2.0.1",
  "updatedAt": "2018-11-07T05:24:33.102Z"
}