{
  "contractName": "CryptoFreaks",
  "abi": [
    {
      "constant": true,
      "inputs": [
        {
          "name": "",
          "type": "uint256"
        }
      ],
      "name": "monsterToOwnerIndex",
      "outputs": [
        {
          "name": "",
          "type": "address"
        }
      ],
      "payable": false,
      "stateMutability": "view",
      "type": "function"
    },
    {
      "constant": true,
      "inputs": [
        {
          "name": "",
          "type": "address"
        }
      ],
      "name": "monsterOwnershipCount",
      "outputs": [
        {
          "name": "",
          "type": "uint256"
        }
      ],
      "payable": false,
      "stateMutability": "view",
      "type": "function"
    },
    {
      "constant": false,
      "inputs": [],
      "name": "unpause",
      "outputs": [],
      "payable": false,
      "stateMutability": "nonpayable",
      "type": "function"
    },
    {
      "constant": true,
      "inputs": [],
      "name": "paused",
      "outputs": [
        {
          "name": "",
          "type": "bool"
        }
      ],
      "payable": false,
      "stateMutability": "view",
      "type": "function"
    },
    {
      "constant": false,
      "inputs": [],
      "name": "renounceOwnership",
      "outputs": [],
      "payable": false,
      "stateMutability": "nonpayable",
      "type": "function"
    },
    {
      "constant": false,
      "inputs": [],
      "name": "pause",
      "outputs": [],
      "payable": false,
      "stateMutability": "nonpayable",
      "type": "function"
    },
    {
      "constant": true,
      "inputs": [],
      "name": "owner",
      "outputs": [
        {
          "name": "",
          "type": "address"
        }
      ],
      "payable": false,
      "stateMutability": "view",
      "type": "function"
    },
    {
      "constant": true,
      "inputs": [
        {
          "name": "",
          "type": "uint256"
        }
      ],
      "name": "monsters",
      "outputs": [
        {
          "name": "id",
          "type": "uint256"
        },
        {
          "name": "genes",
          "type": "uint256"
        },
        {
          "name": "generation",
          "type": "uint256"
        },
        {
          "name": "owner",
          "type": "address"
        },
        {
          "name": "forSale",
          "type": "bool"
        },
        {
          "name": "price",
          "type": "uint256"
        }
      ],
      "payable": false,
      "stateMutability": "view",
      "type": "function"
    },
    {
      "constant": false,
      "inputs": [
        {
          "name": "_newOwner",
          "type": "address"
        }
      ],
      "name": "transferOwnership",
      "outputs": [],
      "payable": false,
      "stateMutability": "nonpayable",
      "type": "function"
    },
    {
      "inputs": [],
      "payable": false,
      "stateMutability": "nonpayable",
      "type": "constructor"
    },
    {
      "anonymous": false,
      "inputs": [
        {
          "indexed": false,
          "name": "id",
          "type": "uint256"
        }
      ],
      "name": "MonsterGenerated",
      "type": "event"
    },
    {
      "anonymous": false,
      "inputs": [],
      "name": "Pause",
      "type": "event"
    },
    {
      "anonymous": false,
      "inputs": [],
      "name": "Unpause",
      "type": "event"
    },
    {
      "anonymous": false,
      "inputs": [
        {
          "indexed": true,
          "name": "previousOwner",
          "type": "address"
        }
      ],
      "name": "OwnershipRenounced",
      "type": "event"
    },
    {
      "anonymous": false,
      "inputs": [
        {
          "indexed": true,
          "name": "previousOwner",
          "type": "address"
        },
        {
          "indexed": true,
          "name": "newOwner",
          "type": "address"
        }
      ],
      "name": "OwnershipTransferred",
      "type": "event"
    },
    {
      "constant": true,
      "inputs": [],
      "name": "totalSupply",
      "outputs": [
        {
          "name": "",
          "type": "uint256"
        }
      ],
      "payable": false,
      "stateMutability": "view",
      "type": "function"
    },
    {
      "constant": false,
      "inputs": [],
      "name": "generateMonster",
      "outputs": [],
      "payable": false,
      "stateMutability": "nonpayable",
      "type": "function"
    },
    {
      "constant": true,
      "inputs": [
        {
          "name": "_monsterID",
          "type": "uint256"
        }
      ],
      "name": "getMonster",
      "outputs": [
        {
          "name": "generation",
          "type": "uint256"
        },
        {
          "name": "genes",
          "type": "uint256"
        },
        {
          "name": "owner",
          "type": "address"
        },
        {
          "name": "forSale",
          "type": "bool"
        },
        {
          "name": "price",
          "type": "uint256"
        }
      ],
      "payable": false,
      "stateMutability": "view",
      "type": "function"
    },
    {
      "constant": true,
      "inputs": [],
      "name": "getAllMonsters",
      "outputs": [
        {
          "name": "",
          "type": "uint256[]"
        }
      ],
      "payable": false,
      "stateMutability": "view",
      "type": "function"
    }
  ],
  "bytecode": "0x608060405260008060146101000a81548160ff02191690831515021790555034801561002a57600080fd5b50336000806101000a81548173ffffffffffffffffffffffffffffffffffffffff021916908373ffffffffffffffffffffffffffffffffffffffff1602179055506000600181905550610f1b806100826000396000f3006080604052600436106100c5576000357c0100000000000000000000000000000000000000000000000000000000900463ffffffff16806308e29f56146100ca57806318160ddd146101375780632065f7ef146101625780632d981452146101b95780633f4ba83a146101d05780635c975abb146101e7578063611f9a1f1461021657806362fb6fe114610282578063715018a61461030f5780638456cb59146103265780638da5cb5b1461033d578063c0576b7314610394578063f2fde38b14610428575b600080fd5b3480156100d657600080fd5b506100f56004803603810190808035906020019092919050505061046b565b604051808273ffffffffffffffffffffffffffffffffffffffff1673ffffffffffffffffffffffffffffffffffffffff16815260200191505060405180910390f35b34801561014357600080fd5b5061014c61049e565b6040518082815260200191505060405180910390f35b34801561016e57600080fd5b506101a3600480360381019080803573ffffffffffffffffffffffffffffffffffffffff1690602001909291905050506104a8565b6040518082815260200191505060405180910390f35b3480156101c557600080fd5b506101ce6104c0565b005b3480156101dc57600080fd5b506101e56107ba565b005b3480156101f357600080fd5b506101fc610878565b604051808215151515815260200191505060405180910390f35b34801561022257600080fd5b5061022b61088b565b6040518080602001828103825283818151815260200191508051906020019060200280838360005b8381101561026e578082015181840152602081019050610253565b505050509050019250505060405180910390f35b34801561028e57600080fd5b506102ad60048036038101908080359060200190929190505050610958565b604051808681526020018581526020018473ffffffffffffffffffffffffffffffffffffffff1673ffffffffffffffffffffffffffffffffffffffff168152602001831515151581526020018281526020019550505050505060405180910390f35b34801561031b57600080fd5b50610324610a4b565b005b34801561033257600080fd5b5061033b610b4d565b005b34801561034957600080fd5b50610352610c0d565b604051808273ffffffffffffffffffffffffffffffffffffffff1673ffffffffffffffffffffffffffffffffffffffff16815260200191505060405180910390f35b3480156103a057600080fd5b506103bf60048036038101908080359060200190929190505050610c32565b604051808781526020018681526020018581526020018473ffffffffffffffffffffffffffffffffffffffff1673ffffffffffffffffffffffffffffffffffffffff16815260200183151515158152602001828152602001965050505050505060405180910390f35b34801561043457600080fd5b50610469600480360381019080803573ffffffffffffffffffffffffffffffffffffffff169060200190929190505050610c9b565b005b60046020528060005260406000206000915054906101000a900473ffffffffffffffffffffffffffffffffffffffff1681565b6000600154905090565b60036020528060005260406000206000915090505481565b6000809054906101000a900473ffffffffffffffffffffffffffffffffffffffff1673ffffffffffffffffffffffffffffffffffffffff163373ffffffffffffffffffffffffffffffffffffffff1614151561051b57600080fd5b7f653fcaa16bbb8930df31da4130be138e73b9fb82eb11a3f7ccf80d00836a7aad6001546040518082815260200191505060405180910390a160c06040519081016040528060018054018152602001610572610d02565b8152602001600081526020016000809054906101000a900473ffffffffffffffffffffffffffffffffffffffff1673ffffffffffffffffffffffffffffffffffffffff168152602001600015158152602001600081525060026000600154815260200190815260200160002060008201518160000155602082015181600101556040820151816002015560608201518160030160006101000a81548173ffffffffffffffffffffffffffffffffffffffff021916908373ffffffffffffffffffffffffffffffffffffffff16021790555060808201518160030160146101000a81548160ff02191690831515021790555060a082015181600401559050506001600360008060009054906101000a900473ffffffffffffffffffffffffffffffffffffffff1673ffffffffffffffffffffffffffffffffffffffff1673ffffffffffffffffffffffffffffffffffffffff1681526020019081526020016000205401600360008060009054906101000a900473ffffffffffffffffffffffffffffffffffffffff1673ffffffffffffffffffffffffffffffffffffffff1673ffffffffffffffffffffffffffffffffffffffff168152602001908152602001600020819055506000809054906101000a900473ffffffffffffffffffffffffffffffffffffffff1660046000600154815260200190815260200160002060006101000a81548173ffffffffffffffffffffffffffffffffffffffff021916908373ffffffffffffffffffffffffffffffffffffffff1602179055506001805401600181905550565b6000809054906101000a900473ffffffffffffffffffffffffffffffffffffffff1673ffffffffffffffffffffffffffffffffffffffff163373ffffffffffffffffffffffffffffffffffffffff1614151561081557600080fd5b600060149054906101000a900460ff16151561083057600080fd5b60008060146101000a81548160ff0219169083151502179055507f7805862f689e2f13df9f062ff482ad3ad112aca9e0847911ed832e158c525b3360405160405180910390a1565b600060149054906101000a900460ff1681565b606080600080600060015414156108d45760006040519080825280602002602001820160405280156108cc5781602001602082028038833980820191505090505b509350610952565b6001546040519080825280602002602001820160405280156109055781602001602082028038833980820191505090505b50925060009150600190505b6001548111151561094e5780838381518110151561092b57fe5b906020019060200201818152505081806001019250508080600101915050610911565b8293505b50505090565b60008060008060008086600154811015156109db576040517f08c379a00000000000000000000000000000000000000000000000000000000081526004018080602001828103825260188152602001807f4d6f6e73746572206964206f7574206f6620626f756e6473000000000000000081525060200191505060405180910390fd5b60026000898152602001908152602001600020915081600201549650816001015495508160030160009054906101000a900473ffffffffffffffffffffffffffffffffffffffff1694508160030160149054906101000a900460ff16935081600401549250505091939590929450565b6000809054906101000a900473ffffffffffffffffffffffffffffffffffffffff1673ffffffffffffffffffffffffffffffffffffffff163373ffffffffffffffffffffffffffffffffffffffff16141515610aa657600080fd5b6000809054906101000a900473ffffffffffffffffffffffffffffffffffffffff1673ffffffffffffffffffffffffffffffffffffffff167ff8df31144d9c2f0f6b59d69b8b98abd5459d07f2742c4df920b25aae33c6482060405160405180910390a260008060006101000a81548173ffffffffffffffffffffffffffffffffffffffff021916908373ffffffffffffffffffffffffffffffffffffffff160217905550565b6000809054906101000a900473ffffffffffffffffffffffffffffffffffffffff1673ffffffffffffffffffffffffffffffffffffffff163373ffffffffffffffffffffffffffffffffffffffff16141515610ba857600080fd5b600060149054906101000a900460ff16151515610bc457600080fd5b6001600060146101000a81548160ff0219169083151502179055507f6985a02210a168e66602d3235cb6db0e70f92b3ba4d376a33c0f3d9434bff62560405160405180910390a1565b6000809054906101000a900473ffffffffffffffffffffffffffffffffffffffff1681565b60026020528060005260406000206000915090508060000154908060010154908060020154908060030160009054906101000a900473ffffffffffffffffffffffffffffffffffffffff16908060030160149054906101000a900460ff16908060040154905086565b6000809054906101000a900473ffffffffffffffffffffffffffffffffffffffff1673ffffffffffffffffffffffffffffffffffffffff163373ffffffffffffffffffffffffffffffffffffffff16141515610cf657600080fd5b610cff81610dbf565b50565b600080600080600080600080600080610d1b6003610eb9565b9850610d276002610eb9565b9750610d336007610eb9565b9650610d3f6007610eb9565b9550610d4b6004610eb9565b9450610d576004610eb9565b9350610d636002610eb9565b9250610d6f6004610eb9565b9150610d7b6009610eb9565b90506305f5e1008902629896808902620f42408902620186a0890261271089026103e8890260648902600a8902880101010101010101995050505050505050505090565b600073ffffffffffffffffffffffffffffffffffffffff168173ffffffffffffffffffffffffffffffffffffffff1614151515610dfb57600080fd5b8073ffffffffffffffffffffffffffffffffffffffff166000809054906101000a900473ffffffffffffffffffffffffffffffffffffffff1673ffffffffffffffffffffffffffffffffffffffff167f8be0079c531659141344cd1fd0a4f28419497f9722a3daafe3b4186f6b6457e060405160405180910390a3806000806101000a81548173ffffffffffffffffffffffffffffffffffffffff021916908373ffffffffffffffffffffffffffffffffffffffff16021790555050565b60008143426040518083815260200182815260200192505050604051809103902060019004811515610ee757fe5b0690509190505600a165627a7a7230582070961e1d2a8c276d1f65c987a15d312c30f1124631c7b1e735625ca9b7fc44a00029",
  "source": "pragma solidity ^0.4.21;\n\nimport \"./Pausable.sol\";\n\ncontract CryptoFreaks is Pausable {\n    // Number of total generated monsters\n    uint numMonsters;\n    // list of monsters by id\n    mapping (uint256 => Monster) public monsters;\n    // number of monsters by owner\n    mapping (address => uint) public monsterOwnershipCount;\n    // given a monster id return owner\n    mapping (uint => address) public monsterToOwnerIndex;\n\n    event MonsterGenerated(uint id);\n\n    constructor() public {\n        numMonsters = 0;\n    }\n\n    struct Monster {\n        uint id;\n        uint genes;\n        uint generation;\n        address owner;\n        bool forSale;\n        uint price;\n    }\n\n    /**\n     * Themonster id must be lower than number of generated monsters\n     */\n    modifier mustExist(uint _monsterID) {\n        require(_monsterID < numMonsters, \"Monster id out of bounds\");\n        _;\n    }\n\n    /**\n     * Return total amount of generated monsters\n     */\n    function totalSupply() public view returns(uint) {\n        return numMonsters;\n    }\n\n    /**\n     * Generates a random new monster\n     */\n    function generateMonster() public onlyOwner {\n        emit MonsterGenerated(numMonsters);\n        monsters[numMonsters] = Monster({\n            id: numMonsters + 1,\n            genes: generateRandomGenes(),\n            generation: 0,\n            owner: owner,\n            forSale: false,\n            price: 0\n        });\n        monsterOwnershipCount[owner] = monsterOwnershipCount[owner] + 1;\n        monsterToOwnerIndex[numMonsters] = owner;\n        numMonsters = numMonsters + 1;\n    }\n\n    /**\n     * Get a monster by id\n     */\n    function getMonster(uint _monsterID) public view mustExist(_monsterID) returns(\n        uint generation,\n        uint genes,\n        address owner,\n        bool forSale,\n        uint price\n    ) {\n        Monster storage m = monsters[_monsterID];\n        generation = m.generation;\n        genes = m.genes;\n        owner = m.owner;\n        forSale = m.forSale;\n        price = m.price;\n    }\n\n    /*\n     * Return a list of all the available monsters\n     */\n    function getAllMonsters() public view returns(uint256[]) {\n        if (numMonsters == 0) {\n            // Return an empty array\n            return new uint256[](0);\n        } else {\n            uint256[] memory result = new uint256[](numMonsters);\n            uint256 resultIndex = 0;\n\n            // We count on the fact that all cats have IDs starting at 1 and increasing\n            // sequentially up to the totalCat count.\n            uint256 monsterID;\n\n            for (monsterID = 1; monsterID <= numMonsters; monsterID++) {\n                result[resultIndex] = monsterID;\n                resultIndex++;\n            }\n\n            return result;\n        }\n    }\n\n    /**\n     * Return a list of the monsters owned by an address\n     */\n    // function getMonstersOfOwner(address _owner) public view {\n    //     uint256 numMonstersOwner = monsterOwnershipCount(_owner);\n\n    //     if (numMonsters == 0) {\n    //         // Return an empty array\n    //         return new uint256[](0);\n    //     } else {\n    //         uint256[] memory result = new uint256[](tokenCount);\n    //         uint256 resultIndex = 0;\n\n    //         // We count on the fact that all cats have IDs starting at 1 and increasing\n    //         // sequentially up to the totalCat count.\n    //         uint256 catId;\n\n    //         for (catId = 1; catId <= numMonsters; catId++) {\n    //             if (monsterToOwnerIndex[catId] == _owner) {\n    //                 result[resultIndex] = catId;\n    //                 resultIndex++;\n    //             }\n    //         }\n\n    //         return result;\n    //     }\n    // }\n\n    function generateRandomGenes() private view returns (uint) {\n        uint head = randomGen(3);\n        uint body = randomGen(2);\n        uint eyes = randomGen(7);\n        uint mouth = randomGen(7);\n        uint leftArm = randomGen(4);\n        uint rightArm = randomGen(4);\n        uint legs = randomGen(2);\n        uint top = randomGen(4);\n        uint color = randomGen(9);\n\n        return color +\n            top * 10 +\n            legs * 100 +\n            rightArm * 1000 +\n            leftArm * 10000 +\n            mouth * 100000 +\n            eyes * 1000000 +\n            body * 10000000 +\n            head * 100000000;\n    }\n\n    /* Generates a random number from 0 to max based on the last block hash */\n    function randomGen(uint max) private view returns (uint randomNumber) {\n        return uint(keccak256(block.number, block.timestamp)) % max;\n    }\n\n}",
  "sourcePath": "/Users/ruben/proj/cryptofreaks/contracts/CryptoFreaks.sol",
  "compiler": {
    "name": "solc",
    "version": "0.4.24+commit.e67f0147.Emscripten.clang"
  },
  "schemaVersion": "2.0.1",
  "updatedAt": "2018-08-27T19:44:05.254Z"
}